:020000040800F2
:10000000480400209D010008C315000813150008CE
:10001000C115000809020008B91900080000000015
:100020000000000000000000000000000B190008A4
:100030000B02000800000000E51500080D1900087B
:10004000B7010008B7010008B7010008B7010008B0
:10005000B7010008B7010008B7010008B7010008A0
:10006000B7010008B7010008B7010008B701000890
:10007000B7010008B7010008B7010008B701000880
:10008000B7010008B7010008B7010008B701000870
:10009000B7010008B7010008B7010008B701000860
:1000A000B7010008B7010008B7010008B701000850
:1000B000B7010008B7010008B7010008B701000840
:1000C000B7010008B7010008B7010008B701000830
:1000D000B7010008B7010008B7010008B701000820
:1000E000B701000899180008B7010008B701000817
:1000F000B7010008B7010008B7010008B701000800
:10010000B7010008B7010008B7010008B7010008EF
:10011000B7010008B7010008B7010008B7010008DF
:10012000B7010008B7010008B7010008B7010008CF
:10013000B7010008B7010008B7010008B7010008BF
:10014000B7010008B7010008B7010008B7010008AF
:10015000B7010008B7010008B7010008B70100089F
:10016000B7010008B7010008B7010008B70100088F
:10017000B7010008B7010008B7010008000000003F
:10018000B7010008B7010008DFF80CD000F02AF82A
:1001900000480047D9190008480400200648804755
:1001A00006480047FEE7FEE7FEE7FEE7FEE7FEE75C
:1001B000FEE7FEE7FEE7FEE7751900088901000883
:1001C000D2B201E000F8012B491EFBD27047002299
:1001D000F6E710B513460A4604461946FFF7F0FF46
:1001E000204610BD064C074D06E0E06840F00103D4
:1001F00094E8070098471034AC42F6D3FFF7C8FFE5
:100200008C1A0008AC1A0008FEE770472DE9F84F79
:10021000DFF898B100234FF0010C4FF0030A4FF0C4
:100220000F090BF1040EB9E00CFA03F4224070D070
:100230004D68022D01D0122D0ED1DD0800EB85088E
:10024000D8F820505E07F70E09FA07F6B5430E6995
:10025000BE402E43C8F8206007685E0091F8048015
:100260000AFA06F508F00308AF4308FA06F848EA68
:100270000708C0F800804F68012F05D0022F03D077
:10028000112F01D0122F13D1D0F80880CF6828EA9F
:100290000508B74047EA08078760D0F804800F795F
:1002A00028EA0408C7F300179F4047EA0807476099
:1002B000D1F804806FEA0807BF0706D1C76AA743D1
:1002C000C8F3C0049C403C43C462C468AC438D681E
:1002D000B5402543C5604C68E4005ED5344C256EBE
:1002E00045F001052566246E23F0030504F00104A2
:1002F0000094304C2E19B4689D072F0F09FA07F5AA
:10030000AC43B0F1904F05D02B4DA84204D101254C
:100310001CE042E0002519E0284DA84201D1022549
:1003200014E0274DA84201D103250FE0254DA84236
:1003300001D104250AE0244DA84201D1052505E09C
:10034000224DA84201D1062500E00725BD402543E6
:10035000B560DBF800405D464E689443F60300D577
:1003600014432C60DEF8004075464E689443B60393
:1003700000D514432C600D4D08352C684E6894430D
:10038000F60200D514432C60084D0C352C684E68DD
:100390009443B60200D514432C605B1C0A6832FA01
:1003A00003F57FF441AF00F013B8000000040140F2
:1003B000001002400000014000040048000800480E
:1003C000000C0048001000480014004800180048C5
:1003D00018BCBDE8E08F42694A40426170470AB1EB
:1003E0008161704781627047014800687047000072
:1003F0000400002002480168491C016070470000A9
:100400000400002010B50024032000F065F800204F
:1004100000F008F808B1012401E000F01BF82046C4
:1004200010BD000070B5054609484FF47A710024EC
:100430000068B0FBF1F001F058F808B1012404E0C5
:1004400000222946501E00F027F8204670BD00000B
:1004500008000020094808B5016E41F0010101665D
:10046000016E01F001010091816D41F080518165C3
:10047000806D00F08050009008BD00000010024028
:1004800000F01F02012191404009800000F1E020AE
:10049000C0F8001170470000F0B40E4B1B680C460A
:1004A000C3F30223C3F10705042D00D90425191D48
:1004B000072901D2002300E0DB1E012606FA05F120
:1004C000491E214099409E40761E16403143F0BCA3
:1004D00001F078B80CED00E0064900F0070208686A
:1004E0004FF6FF03184040EA0220034A1043086019
:1004F000704700000CED00E00000FA051649B0F569
:10050000007F0868C0F3412009D0022805D00868A0
:1005100020F4C06040F4806008600020704701282B
:10052000FBD0086820F4C06040F4007008600B48FD
:100530003222006850430A4AB0FBF2F0401C00E04F
:10054000401E4A69520501D50028F9D14869400585
:10055000E3D5032070470000007000400800002031
:1005600040420F000248006800F4C060704700007D
:10057000007000402DE9F84F044600270088E54D43
:100580003E46010504F1200B1DD5606E78B1B0F533
:10059000800F11D0B0F5000F04D0B0F5400F22D07D
:1005A00001270FE0E86840F48030E8601BE000219C
:1005B000201D01F019F803E00021584601F0AAF8C7
:1005C000070010D03E462088C00426D5A06EC0B1DA
:1005D000B0F1807F1AD0B0F1007F0DD0B0F1407F34
:1005E00019D0012718E0D5F88800616E20F440008A
:1005F0000843C5F88800E6E7E86840F48030E86022
:1006000009E00021201D00F0EFFF03E00021584623
:1006100001F080F80746F7B13E46206880033AD5DE
:10062000A86D4FF00008C00009D4A86D40F08050BC
:10063000A865A86D4FF0010800F080500090DFF829
:10064000D8A2DAF8001041F48071CAF80010FFF760
:10065000CBFE814610E0D5F88800A16E20F04070F6
:100660000843C5F88800D8E7FFF7BEFEA0EB0900F5
:10067000022801D9032705E0DAF80000C005F3D508
:10068000002F7CD04FEA0706B8F1000F03D0A86D09
:1006900020F08050A8652078C00707D0D5F88800E2
:1006A000A16B20F003000843C5F88800207880077C
:1006B00007D5D5F88800E16B20F00C000843C5F899
:1006C00088002078400707D5D5F88800216C20F0F5
:1006D00030000843C5F888002078000707D5D5F812
:1006E0008800616C20F0C0000843C5F888002078BD
:1006F000C00607D5D5F88800A16C20F440700843E7
:10070000C5F888002078800607D5D5F88800E16C08
:1007100020F440600843C5F888002088800507D58C
:10072000D5F88800E16D20F440200843C5F8880022
:100730002088400507D5D5F88800216E20F44010A8
:100740000843C5F888002078400607D5D5F888000A
:10075000216D20F440500843C5F888002078000639
:1007600007D5D5F88800616D20F440400843C5F8EE
:1007700088002088C00509D5D5F8880000E01CE075
:10078000A16D20F440300843C5F8880020884FF060
:10079000006780044FF080684FD5D5F88800E16E7F
:1007A00020F040600843C5F88800E06EB8423CD1B4
:1007B000E86840F48010E8603FE0D5F8900010F45D
:1007C000407015D0D4F88410814211D0D5F8900033
:1007D000D5F8901020F4407041F48031C5F89010A5
:1007E000D5F8901021F48031C5F89010C5F890002C
:1007F000C00710D0FFF7F8FD074641F2883906E040
:10080000FFF7F2FDC11B494501D903263CE7D5F8A6
:1008100090008007F4D5D5F89000D4F8841020F427
:1008200040700843C5F890002EE7404505D10121EE
:10083000201D00F0D9FE00B106462068000317D540
:10084000D5F88800216F20F040600843C5F8880083
:10085000206FB84204D1E86840F48010E86007E0F7
:10086000404505D10121201D00F0BEFE00B1064625
:100870002068400317D5D5F88800616F20F04060EC
:100880000843C5F88800606FB84204D1E86840F4B6
:100890008010E86007E0404505D10121201D00F0EF
:1008A000A3FE00B10646208840041AD5D5F888007A
:1008B000A16F20F040500843C5F88800A06FB0F148
:1008C000805F03D0B0F1005F05D00AE00221201D57
:1008D00000F08AFE03E00221584600F01BFF00B141
:1008E00006462088000407D5D5F88800E16F20F07F
:1008F00080400843C5F888002068C00307D555F834
:10090000880FD4F8801020F000400843286030465B
:1009100000F004B8001002400070004018BCBDE8B0
:10092000E08F00002DE9F0470F46050058D03F4EFC
:10093000306800F00700B84209D2306820F00700A4
:1009400038433060306800F00700B84248D128785A
:10095000374CC0072CD06868032811D0022812D069
:10096000216898B1490500293ADAA16821F003010C
:100970000143A160FFF738FD804641F2883910E05D
:1009800021688901EFE721688903ECE78907EAE735
:10099000FFF72AFDA0EB0801494502D90320BDE875
:1009A000F087A068696800F00C00B0EB810FEFD110
:1009B0002878800705D5A068A96820F0F0000843D2
:1009C000A060306800F00700B8420BD9306820F012
:1009D000070038433060306800F00700B84201D0AB
:1009E0000120DCE72878400705D5A068E96820F4F5
:1009F000E0600843A0602878000706D5A068296950
:100A000020F4605040EAC100A06000F017F8A1682F
:100A1000084AC1F30311515C01F01F01C8400649A7
:100A20000860BDE8F0470020FFF7FCBC0020024052
:100A3000001002404C1A00080800002070B525493B
:100A4000002318468A68CC6812F00C0204F00306F2
:100A5000214C4FEA640509D00C2A05D0042A26D07F
:100A6000082A00D1284670BD012E10D10B681B0743
:100A700004D4D1F89430C3F3032302E00B68C3F32A
:100A80000313164E56F823307AB10C2AEBD1C868FE
:100A900000F00302C868C0F30210401C022A08D00C
:100AA000032A09D0B3FBF0F008E0184670BD2046D9
:100AB00070BDB4FBF0F001E0B5FBF0F0CA68C968A6
:100AC000C2F306225043C1F34161491C4900B0FB07
:100AD000F1F070BD001002400024F4005C1A000820
:100AE0002DE9F84305007CD0FD4CA06800F00C0611
:100AF000E06800F003072878C00661D576B10C2EB7
:100B000001D1012F0AD0A8690028206878D040F0D0
:100B100001002060FFF768FC804659E020688007EC
:100B200002D5A8690028DED0286A2168090703D504
:100B3000216801F0F00104E0D4F89410F02202EAF8
:100B40001111884215D900F069FE002849D12068AA
:100B500040F0080020602068296A20F0F000084377
:100B600020606068E96920F47F4040EA012060600D
:100B700015E0206840F0080020602068296A20F015
:100B8000F000084320606068E96920F47F4040EA93
:100B900001206060286A00F041FE0028D6D1FFF7EE
:100BA0004DFFA168CF4AC1F30311515C01F01F0151
:100BB000C840CD4908600020FFF734FC00287DD1F3
:100BC0002FE000BFFFF710FCA0EB0800022876D84A
:100BD00020688007F6D5206840F008002060206873
:100BE00001E0BBE00CE0296A20F0F000084320603F
:100BF0006068E96920F47F4040EA0120606010E00D
:100C000020F001002060FFF7EFFB804606E000BF08
:100C1000FFF7EAFBA0EB08000228D8D8206880077D
:100C2000F6D42878C00740D0082E18D00C2E01D159
:100C3000032F14D06868B0F5803F17D0B0F5A02F0F
:100C4000206817D020F480302060206820F48020B5
:100C500020606868E0B1FFF7C7FB804614E02068B9
:100C6000800322D56868002878D01EE0206840F410
:100C70008030EDE740F480202060F7E7FFF7B4FB19
:100C8000A0EB08006428A2D820688003F6D50CE009
:100C9000FFF7AAFB804605E0FFF7A6FBA0EB0800E4
:100CA000642894D820688003F6D4287880073BD540
:100CB000042E11D00C2E04D1022F01E036E1A1E068
:100CC0000AD0E868002820681ED040F480702060B8
:100CD000FFF78AFB07460CE0206840050CD5E86862
:100CE0000028C1D008E000BFFFF77EFBC01B022830
:100CF00093D820684005F7D56068297C20F0F8502B
:100D000040EA016060600FE020F480702060FFF72F
:100D10006BFB074605E000BFFFF766FBC01B022820
:100D200070D820684005F7D42878000729D568696D
:100D30000028D4F8940012D040F00100C4F89400C8
:100D4000FFF752FB074604E0FFF74EFBC01B0228EB
:100D500058D8D4F894008007F6D512E0EDE020F0E2
:100D60000100C4F89400FFF73FFB074605E000BF11
:100D7000FFF73AFBC01B022844D8D4F89400800740
:100D8000F6D42878400768D5A06D0027C00008D4A5
:100D9000A06D40F08050A065A06D012700F080504C
:100DA000009052480168C90512D40168814641F497
:100DB00080710160FFF718FB804605E0FFF714FB28
:100DC000A0EB080002281DD8D9F80000C005F5D511
:100DD000A868012817D00528D4F8900018D020F072
:100DE0000100C4F89000D4F8900020F0040000BF87
:100DF000C4F89000A86841F28839D0B1FFF7F4FA3E
:100E0000804611E06BE0D4F8900040F00100EFE77D
:100E100040F00400C4F89000F5E700BFFFF7E4FAE3
:100E2000A0EB080149455AD8D4F890008007F5D5C1
:100E30000EE0FFF7D9FA804606E000BFFFF7D4FACC
:100E4000A0EB0801494570D8D4F890008007F5D48C
:100E50001FB1A06D20F08050A065A86AF0B30C2EE1
:100E60006BD00228206820F08070206004D02068B9
:100E700010F0205F47D04AE0FFF7B6FA064604E0DC
:100E8000FFF7B2FA801B02284FD820688001F7D400
:100E9000286BE96A000110380843696BAA6B0902E4
:100EA000120941EA42410843A98F114A490802EB5D
:100EB0004151084395F840104908120102EB416185
:100EC0000843E060206840F080702060E06840F0F7
:100ED0008070E060FFF788FA054610E02BE024E020
:100EE000001002404C1A000808000020007000406A
:100EF0000000E0FFFFF778FA401B022815D82068B1
:100F00008001F7D517E0E06820F00300E060E068BA
:100F10000B490840E060FFF767FA054608E000BFAC
:100F2000FFF762FA401B022802D90320BDE8F883CC
:100F300020688001F4D40020F8E70120F6E70000E3
:100F4000FFFFEEFE7047000001210148FFF743BAA2
:100F50000008004810B5144904464FF4802008608A
:100F600020688168C9040BD5C168C90508D5C16866
:100F700001F0800161F4C071C1602046FFF7E4FF19
:100F80002068816889040BD5C168890508D5C168C6
:100F900001F0800161F42071C1602046FFF7D2FFAB
:100FA000012084F8210010BD1404014010B5006830
:100FB0000B4641680D480140080CD870C1F3042469
:100FC0005C7001F03F049C70C1F34231197052B95A
:100FD00000F068FCD870587800F064FC587098787D
:100FE00000F060FC9870002010BD00003FFFFF0083
:100FF00010B50B460168896A596001680969C1F337
:101000000E019960006801680D480140C1F3054078
:101010001870C1F306245C7001F07F049C70890D88
:10102000D97052B900F03EFC1870587800F03AFCC4
:101030005870987800F036FC9870002010BD0000C1
:101040007F7F7F002DE9F04104004FF0010553D070
:1010500094F82100002528B9002084F820002046BB
:1010600000F050F8022084F821002168CA2048626C
:10107000216853204862204600F02AFCFF260427FE
:1010800018BB206881681E4A114081602168886809
:101090006268A369104322691A431043886021687B
:1010A000E068086120680169228941EA0241016122
:1010B0002068C16821F08001C160206880688006D6
:1010C00009D4204600F0F6F928B12068466284F879
:1010D0002170012510E02068C16C21F00301C1647A
:1010E0006169E06908432168CA6C1043C8642068DC
:1010F0004662012084F821002846BDE8F081000006
:10110000BFFF8FFF10B50068094988420FD1094819
:1011100050F8901F41F4004101600022114629203F
:10112000FFF7BAF9BDE810402920FFF7A9B910BDB3
:1011300000280040001002402DE9F05F044690F8BE
:1011400020000B4601284CD0012084F8200002200A
:1011500084F821002068002680684FEA4060EAB3E6
:1011600000285BDA187800F09DFB00BF93F82000A0
:1011700000F098FB98781978DA7840EA01405978BD
:10118000090241EA8251084393F8201040EA0165C0
:10119000D8695F6805435869216805439869074322
:1011A000CA204862216853204862586A4FF0FF08FD
:1011B000B0F5807F20684FF0030B4FF47A7A816896
:1011C0002ED021F4007181602068C16801F0800197
:1011D00061F42071C160FFF707F900E004E0814687
:1011E00053E0022000F07AB8002800DBDE701878A7
:1011F00000F061FB0504587800F05DFB45EA00252E
:10120000987800F058FB0543D87845EA805593F864
:10121000200000F050FB45EA0065B9E7DE70A5E765
:1012200021F4807181602068C16801F0800161F45F
:10123000C071C160FFF7D8F8814605E0FFF7D4F828
:10124000A0EB0900504517D82068C068C007F5D04A
:101250002068C561206847642068816841F4807116
:1012600081602068816841F480511FE0FFF7BCF87D
:10127000A0EB0900504508D92168C1F8248084F802
:1012800021B084F820600320ACE72068C0688007A4
:10129000ECD520680562206887642068816841F485
:1012A000007181602068816841F4005181600A48C2
:1012B000016841F48021016007480830016841F469
:1012C000802101602168C1F82480012084F8210078
:1012D00084F82060002085E70004014030BCBDE8B0
:1012E000C09F00002DE9F047044690F820000B460F
:1012F000012820D04FF0010984F82090022084F8C2
:101300002100DAB19878D97840EA014558781978FF
:10131000000240EA413005432168CA204862216842
:1013200053204862204600F0D3FA0026FF274FF0F2
:10133000040860BB1AE00220BDE8F0875878C106B7
:1013400003D500F0EF000A305870D87800F0B3FAF7
:101350000504587800F0AFFA45EA0025987800F0C7
:10136000AAFA0543187845EA4035D5E71048054004
:10137000206845602068C16821F08001C160206854
:10138000806880060BD4204600F094F838B12068BD
:10139000476284F8218084F820600120CCE720682F
:1013A000476284F8219084F820600020C4E70000A0
:1013B0003FFFFF002DE9F047044690F820009246D9
:1013C0000D46012815D04FF0010884F82080022036
:1013D00084F821002168CA204862216853204862AD
:1013E000204600F075FAFF274FF004090026E8BBFD
:1013F00002E00220BDE8F0872068BAF1000F8068A3
:101400004FEA406005D0002817DA287800F04AFA41
:1014100014E0002800DBEE70287800F04CFA03049A
:10142000687800F048FA43EA0023A87800F043FA0D
:101430000343E87843EA80500AE0EE70A878297800
:10144000EA7840EA01406978090241EA825108439A
:1014500017490840216808602068816821F48021CC
:101460008160D5E903010843216800E00FE08A6844
:10147000104388602068C16821F08001C160206845
:10148000806880060BD4204600F014F838B120683C
:10149000476284F8219084F820600120AAE7206840
:1014A000476284F8218084F820600020A2E70000D1
:1014B0007F7F7F0070B504460068C16821F0A001FD
:1014C000C160FEF791FF05464FF47A7607E000BF52
:1014D000FEF78AFF401BB04201D9032070BD20688F
:1014E000C0688006F4D5002070BD10B5401EB0F174
:1014F000807F01D3012010BD4FF0E02460610F21F7
:10150000601700F05FF80020A06107202061002034
:1015100010BDFEE770B590B014210AA8FEF757FE83
:101520000024282168460F94FEF751FE23482249E3
:10153000C0E900147F218160FF21C0E903144461E8
:101540008461C461FFF77EFD10258DF828501120BD
:101550008DF829008DF82A400D9400220AA9174819
:101560000E94FFF727FF01208DF83C0006208DF830
:101570003D0018268DF83E6013208DF83F000022B4
:101580000FA90E48FFF7AEFE8DF8005012208DF81F
:101590000100049428018DF80240019403940990FD
:1015A0000594069407948DF820600022694603484C
:1015B000FFF7C2FD10B070BD002800400C000020F5
:1015C000FEE770470907090E002806DA00F00F0051
:1015D00000F1E02080F8141D704700F1E02080F851
:1015E00000147047704700002DE9F041444C054657
:1015F0008846E0680026810728680DD0E16801F080
:101600000301814216D1A8B1E0686968C0F30210F5
:10161000401C88420ED120E0012804D0022805D0C9
:10162000032807D108E02168890701E021684905FE
:10163000002907DB01265FE02168890302D42168C5
:101640004903F5E7E1686A686FF00F0321F0730161
:1016500003EB021211430143E160206820F0806037
:101660002060FEF7C1FE074605E000BFFEF7BCFEA6
:10167000C01B022837D820680001F7D4B8F1000F4A
:1016800018D0B8F1010F1ED0287D4FF07E414008E0
:1016900001EB4060A96840EA01202169194A114024
:1016A00008432061206840F080602060FEF79CFEC7
:1016B00007461AE0A868E9680002090940EA4140C3
:1016C0002169114AEBE7288A1049400801EB405094
:1016D000A96840EA012021690D4AE0E7FEF784FE8F
:1016E000C01B022801D9032606E020680001F5D5B9
:1016F0002069A969084320613046BDE8F0810000F7
:1017000000100240FF80FFF9FF80FDFF0000E0FFB6
:10171000FF809FFF2DE9F0413D4C06468846E0687A
:101720000025810730680DD0E16801F00301814296
:1017300016D1A8B1E0687168C0F30210401C88425D
:101740000ED120E0012804D0022805D0032807D1BB
:1017500008E02168890701E021684905002907DBC5
:10176000012551E02168890302D421684903F5E786
:10177000E16872686FF00F0321F0730103EB02124E
:1017800011430143E160206820F080502060FEF7A3
:101790002BFE074605E000BFFEF726FEC01B022811
:1017A00029D820688000F7D4B8F1000F15D0307C1C
:1017B0004FF07E41400801EB4060B16840EA0120F3
:1017C0006169144A114008436061206840F080500C
:1017D0002060FEF709FE07460FE0B068F1680002DE
:1017E000090940EA414061690B4AEBE7FEF7FCFD5D
:1017F000C01B022801D9032506E020688000F5D52A
:1018000060697169084360612846BDE8F0810000A5
:1018100000100240FF80FFF9FF80FDFFF8B51C4D6E
:1018200006460024A86DC00002D5FEF79BFE0DE021
:10183000A86D40F08050A865A86D00F08050009021
:10184000FEF790FEA96D21F08051A965B0F5007FEB
:1018500004D0802E07D94FF003040AE0802E08D967
:10186000A02E01D804E001D1022402E0702E00D1A4
:1018700001240848016821F0070121430160006844
:1018800000F00700A04201D00120F8BD0020F8BD03
:1018900000100240002002400148FFF75BBB00003F
:1018A0000C000020010901EB810100F00F0000EBAA
:1018B0004100C0B270470022014602E00A39C9B2B5
:1018C000521C0A29FAD2100741EA10607047000042
:1018D00070B504460068C168490614D44FF0FF3162
:1018E000C160FEF781FD05464FF47A7607E000BF40
:1018F000FEF77AFD401BB04201D9032070BD20687D
:10190000C0684006F4D5002070BD7047FEF772BD78
:1019100010B5B8B0442122A8FEF759FC142133A811
:10192000FEF755FC88216846FEF751FC18202290EE
:1019300001200024CDE92804279060202A902C94CF
:1019400022A8FFF7CDF80F20CDE933043594369463
:10195000002133A83794FEF7E5FF4FF4003004125E
:10196000009021946846FEF705FE2046FEF7C6FD6E
:1019700038B010BD0D48016841F4700101600C4899
:10198000016841F001010160002181600268094B9A
:101990001A4002608214C260026822F4802202604F
:1019A00081610249C00380390860704788ED00E01A
:1019B00000100240FFFFF6EAFEE702E008C8121F2F
:1019C00008C1002AFAD170477047002001E001C128
:1019D000121F002AFBD1704786B0FEF713FDFFF7F8
:1019E00097FF14216846FEF7F2FB1448C16C41F0E2
:1019F0000401C164C06C124C00F004000590002288
:101A000001212046FEF7EBFC01210091019100210C
:101A10000291039169462046FEF7F8FBFFF77AFD35
:101A200008490022A1F12400FFF7E2FA054800224C
:101A300005492438FFF7BAFAF2E700000010024027
:101A400000080048300000200000002000000000D6
:101A5000000000000102030406070809A086010037
:101A6000400D0300801A060000350C0040420F00B4
:101A700080841E0000093D0000127A000024F4005A
:101A800000366E010048E801006CDC02AC1A000868
:101A9000000000200C000000BA190008B81A000865
:101AA0000C0000203C040000CA19000800000000DF
:081AB0000000000000093D00E8
:040000050800018965
:00000001FF
